:020000040800F2
:100000002010002005010008670400088502000890
:10001000890200084D0100087D070008000000006B
:100020000000000000000000000000004D05000876
:100030005101000800000000A104000805070008A5
:100040001F0100081F0100081F0100081F01000810
:100050001F0100081F0100081F0100081F01000800
:100060001F0100081F0100081F0100081F010008F0
:100070001F0100081F0100081F0100081F010008E0
:100080001F0100081F0100081F0100081F010008D0
:100090001F0100081F0100081F0100081F010008C0
:1000A0001F0100081F0100081F0100081F010008B0
:1000B0001F0100081F0100081F0100081F010008A0
:1000C0001F0100081F0100081F0100081F01000890
:1000D0001F0100081F0100081F0100081F01000880
:1000E0001F0100081F0100081F010008DFF810D0E1
:1000F00000F01AF800480047AD070008AFF3008091
:10010000201000200648804706480047FEE7FEE72B
:10011000FEE7FEE7FEE7FEE7FEE7FEE7FEE7FEE7B7
:100120001D070008ED000008064C074D06E0E068DA
:1001300040F0010394E8070098471034AC42F6D32E
:10014000FFF7D8FF240800084408000800BFFEE7B6
:1001500070472DE9F04102460025002600200023CB
:100160000024002791F803C00CF00F0591F803C09C
:100170000CF0100CBCF1000F03D091F802C04CEA57
:10018000050591F800C0BCF1000F31D014680020C3
:100190002BE04FF0010C0CFA00F3B1F800C00CEAB0
:1001A00003069E4220D183004FF00F0C0CFA03F798
:1001B000BC4305FA03FC4CEA040491F803C0BCF10B
:1001C000280F06D14FF0010C0CFA00FCC2F814C045
:1001D0000AE091F803C0BCF1480F05D14FF0010CC3
:1001E0000CFA00FCC2F810C0401C0828D1D31460DF
:1001F000B1F800C0BCF1FF0F34DD546800202EE0E0
:1002000000F1080C4FF0010808FA0CF3B1F800C037
:100210000CEA03069E4221D183004FF00F0C0CFA2A
:1002200003F7BC4305FA03FC4CEA040491F803C04D
:10023000BCF1280F05D100F1080C08FA0CF8C2F83F
:10024000148091F803C0BCF1480F07D100F1080CED
:100250004FF0010808FA0CF8C2F81080401C08287A
:10026000CED35460BDE8F0810246002093680B4075
:100270000BB1012000E0002070470AB1016100E0ED
:100280004161704700BFFEE700BFFEE738B5044696
:1002900035492068884204D10121042000F002F988
:1002A00019E032492068884204D10121082000F079
:1002B000F9F810E02E492068884204D1012110206D
:1002C00000F0F0F807E02B492068884203D10121B3
:1002D000202000F0E7F8A1890122A068FFF7CDFFF8
:1002E000A18801222068FFF7C8FF1F49A068884243
:1002F00004D10121042000F0D5F819E01B49A068C1
:10030000884204D10121082000F0CCF810E01849FF
:10031000A068884204D10121102000F0C3F807E052
:100320001449A068884203D10121202000F0BAF8C6
:10033000A088ADF8000014208DF8030002208DF88D
:10034000020069462068FFF704FFA089ADF80000AD
:1003500014208DF8030002208DF802006946A06881
:10036000FFF7F7FE38BD000000080140000C014017
:1003700000100140001401402DE9F04104460F46F1
:1003800090461E46A1890122A068FFF776FFA1884A
:1003900001222068FFF771FFA1890022A068FFF702
:1003A0006CFF012000F0FBF947F00101204600F04E
:1003B000CEF830B1204600F00DF94FF0FF30BDE827
:1003C000F08100250DE0701EA84201D1012000E05F
:1003D00000200146204600F075F808F80500681C6A
:1003E00085B2B542EFDB204600F0F4F80020E6E7E6
:1003F0002DE9F04104460E4617469846A189012290
:10040000A068FFF73AFFA18801222068FFF735FFB7
:10041000A1890022A068FFF730FF012000F0BFF99A
:1004200006F0FE01204600F092F830B1204600F0C0
:10043000D1F84FF0FF30BDE8F08100250CE0795D88
:10044000204600F084F828B1204600F0C3F86FF091
:100450000100F0E7681C85B24545F0DB204600F05E
:10046000B9F80020E7E7704708B50121102000F037
:1004700019F814208DF803004FF40050ADF8000077
:1004800002208DF8020069460448FFF762FE01224F
:1004900051030248FFF7F1FE08BD000000100140C3
:1004A0007047000029B1064A92690243044B9A61E1
:1004B00004E0034A92698243014B9A61704700004D
:1004C000001002402DE9F04104460E4600270725A2
:1004D00023E0A18800222068FFF7CFFEA189012236
:1004E000A068FFF7CAFE022000F059F9A188012296
:1004F0002068FFF7C2FE022000F051F9A189A06830
:10050000FFF7B2FE012800D100E0002018B1012061
:10051000A8403843C7B2681E45B2002DD9DAA18879
:1005200000222068FFF7A9FE2EB1A1890022A06851
:10053000FFF7A3FE04E0A1890122A068FFF79DFE5A
:10054000022000F02CF93846BDE8F081704770B504
:1005500004460E4607251DE0A18800222068FFF70B
:100560008CFE0123AB4033400BB1012300E000239C
:100570001A46A189A068FFF780FE022000F00FF95B
:10058000A18801222068FFF778FE022000F007F919
:10059000681E45B2002DDFDAA18800222068FFF72F
:1005A0006CFEA1890122A068FFF767FE022000F01F
:1005B000F6F8A18801222068FFF75FFE022000F014
:1005C000EEF8A189A068FFF74FFE012800D170BDA9
:1005D0000020FCE710B50446A18800222068FFF740
:1005E0004CFE012000F0DBF8A1890022A068FFF793
:1005F00044FE012000F0D3F8A18801222068FFF713
:100600003CFE012000F0CBF8A1890122A068FFF791
:1006100034FE012000F0C3F810BD10B500F002F860
:1006200010BD00000CB50020019000903348006818
:1006300040F480303149086000BF3048006800F461
:10064000003000900198401C0190009818B9019862
:10065000B0F5A06FF1D12948006800F4003010B166
:100660000120009001E0002000900098012843D173
:100670002348006840F010002149086008460068DF
:1006800020F0070008600846006840F0020008609B
:100690001A4840681949486008464068486008465A
:1006A000406840F4806048600846406820F47C1050
:1006B00048600846406840F4E81048600846006812
:1006C00040F08070086000BF0C48006800F00070C7
:1006D0000028F9D00948406820F003000749486025
:1006E0000846406840F00200486000BF0348406888
:1006F00000F00C000828F9D10CBD000000100240E9
:10070000002002400448036840685A1C40F1000081
:1007100001490A60486070470000002010B5134886
:10072000006840F00100114908600846406810491F
:1007300008400E494860084600680E4908400B49C9
:1007400008600846006820F4802008600846406879
:1007500020F4FE0048604FF41F008860FFF75DFF43
:100760004FF000600449086010BD00000010024016
:100770000000FFF8FFFFF6FE08ED00E000BFFEE717
:1007800002E008C8121F08C1002AFAD1704770475A
:10079000002001E001C1121F002AFBD17047002197
:1007A00000E0491CC2008A42FBD870470EB51848C9
:1007B00018490860802088801548886080158881E5
:1007C0000846FFF763FDFFF74FFE13A103C9CDE90C
:1007D0000101052301AA78210E48FFF709FE012334
:1007E0006A4678210B48FFF7C7FD9DF8000000F02E
:1007F000400030B900224FF400510948FFF73DFD99
:1008000004E0012251030648FFF737FD00BFFEE771
:10081000000C01400C000020008D14AFA50000006A
:100820000010014044080008000000200C000000F7
:1008300080070008500800080C0000201410000079
:100840009007000800000000000000000000000009
:04000005080000ED02
:00000001FF
