:020000040800F2
:100000002010002005010008AD0200086902000868
:100010006D0200084D0100081D06000800000000E8
:10002000000000000000000000000000A503000820
:100030005101000800000000AF0200089104000810
:100040001F0100081F0100081F0100081F01000810
:100050001F0100081F0100081F0100081F01000800
:100060001F0100081F0100081F0100081F010008F0
:100070001F0100081F0100081F0100081F010008E0
:100080001F0100081F0100081F0100081F010008D0
:100090001F0100081F0100081F0100081F010008C0
:1000A0001F0100081F0100081F0100081F010008B0
:1000B0001F0100081F0100081F0100081F010008A0
:1000C0001F0100081F0100081F0100081F01000890
:1000D0001F0100081F0100081F0100081F01000880
:1000E0001F0100081F0100081F010008DFF810D0E1
:1000F00000F01AF80048004741060008AFF30080FE
:10010000201000200648804706480047FEE7FEE72B
:10011000FEE7FEE7FEE7FEE7FEE7FEE7FEE7FEE7B7
:10012000A9040008ED000008064C074D06E0E06851
:1001300040F0010394E8070098471034AC42F6D32E
:10014000FFF7D8FFDC060008FC06000800BFFEE74A
:1001500070472DE9F04102460025002600200023CB
:100160000024002791F803C00CF00F0591F803C09C
:100170000CF0100CBCF1000F03D091F802C04CEA57
:10018000050591F800C0BCF1000F31D014680020C3
:100190002BE04FF0010C0CFA00F3B1F800C00CEAB0
:1001A00003069E4220D183004FF00F0C0CFA03F798
:1001B000BC4305FA03FC4CEA040491F803C0BCF10B
:1001C000280F06D14FF0010C0CFA00FCC2F814C045
:1001D0000AE091F803C0BCF1480F05D14FF0010CC3
:1001E0000CFA00FCC2F810C0401C0828D1D31460DF
:1001F000B1F800C0BCF1FF0F34DD546800202EE0E0
:1002000000F1080C4FF0010808FA0CF3B1F800C037
:100210000CEA03069E4221D183004FF00F0C0CFA2A
:1002200003F7BC4305FA03FC4CEA040491F803C04D
:10023000BCF1280F05D100F1080C08FA0CF8C2F83F
:10024000148091F803C0BCF1480F07D100F1080CED
:100250004FF0010808FA0CF8C2F81080401C08287A
:10026000CED35460BDE8F08100BFFEE700BFFEE7DB
:100270002DE9F04107460D46164600240BE000BF6D
:100280008021384600F04CF90028F9D0295D384625
:1002900000F0C0F9641CB442F1D300BF40213846DD
:1002A00000F03EF90028F9D0BDE8F08170477047B2
:1002B00029B1064A92690243044B9A6104E0034A59
:1002C00092698243014B9A6170470000001002401E
:1002D00030B500210022002400232D4D6D6805F06B
:1002E0000C0121B1042905D0082923D105E0294DAD
:1002F000056022E0274D05601FE0254D6D6805F47F
:100300007012234D6D6805F48034022505EB92428E
:100310001CB9214D554305600BE01D4D6D6805F47A
:1003200000351DB11C4D5543056002E0194D554384
:10033000056002E0174D056000BF00BF144D6D68F9
:1003400005F0F0010909154D6B5C0568DD4045605D
:100350000F4D6D6805F4E061090A104D6B5C45684E
:10036000DD4085600A4D6D6805F46051C90A0B4D8A
:100370006B5C4568DD40C560054D6D6805F4404126
:10038000890B074D6B5CC568B5FBF3F5056130BDA6
:100390000010024000127A0000093D000000002019
:1003A00010000020704710B500F002F810BD0000EA
:1003B0000CB50020019000903348006840F4803074
:1003C0003149086000BF3048006800F400300090F8
:1003D0000198401C0190009818B90198B0F5A06FE1
:1003E000F1D12948006800F4003010B101200090DC
:1003F00001E0002000900098012843D123480068C4
:1004000040F01000214908600846006820F007000D
:1004100008600846006840F0020008601A4840681A
:10042000194948600846406848600846406840F4FA
:10043000806048600846406820F47C1048600846A8
:10044000406840F4E81048600846006840F080705A
:10045000086000BF0C48006800F000700028F9D068
:100460000948406820F00300074948600846406892
:1004700040F00200486000BF0348406800F00C00F4
:100480000828F9D10CBD00000010024000200240F5
:100490000448036840685A1C40F1000001490A60A2
:1004A000486070471400002010B51348006840F001
:1004B00001001149086008464068104908400E498B
:1004C0004860084600680E4908400B490860084625
:1004D000006820F4802008600846406820F4FE0090
:1004E00048604FF41F008860FFF75DFF4FF0006029
:1004F0000449086010BD0000001002400000FFF831
:10050000FFFFF6FE08ED00E021B1828942F40052BF
:10051000828104E082894DF6FF731A408281704720
:1005200002460020B1F5007F00D100BF13880B40C8
:100530000BB1012000E00020704700002DE9F047DA
:1005400086B005460E460024A24600BFA1460027FD
:10055000B08900B100BF2F462C8A4CF6FF700440D2
:10056000F08804432C82AC894EF6F3100440B08826
:1005700031890843718908430443AC81AC8A4FF642
:10058000FF400440B0890443AC8201A8FFF7A0FEFD
:100590001F48874202D1DDF810A001E0DDF80CA071
:1005A000A88900F4004040B10AEBCA0000EB0A1031
:1005B00031684900B0FBF1F807E00AEBCA0000EB34
:1005C0000A1031688900B0FBF1F86420B8FBF0F044
:1005D00004012009642101FB1089A88900F400406E
:1005E00040B1322000EBC900B0FBF1F000F0070091
:1005F000044308E0322000EB09106421B0FBF1F065
:1006000000F00F0004432C8106B0BDE8F087000025
:1006100000380140C1F308028280704700BFFEE746
:1006200002E008C8121F08C1002AFAD170477047BB
:10063000002001E001C1121F002AFBD17047000019
:1006400088B001210420FFF733FE4FF40070ADF8AD
:100650001C0018208DF81F0001208DF81E0007A92E
:100660001A48FFF776FD01210420FFF721FE4FF421
:100670008060ADF81C0048208DF81F0007A91348C2
:10068000FFF767FD01218803FFF712FE4FF4E13009
:1006900003900C20ADF816000020ADF81000ADF866
:1006A0001400ADF8120003A90948FFF747FF012124
:1006B0000748FFF729FF07A103C9CDE90101062279
:1006C00001A90348FFF7D4FD00BFFEE70008014081
:1006D000003801400102030405060000FC06000882
:1006E0000000002020000000200600081C07000871
:1006F000200000200010000030060008000000006C
:1007000001020304010203040607080902040608A3
:0C071000000000000000000000000000DD
:04000005080000ED02
:00000001FF
